{
  "_format": "hh-sol-artifact-1",
  "contractName": "CrowdFunding",
  "sourceName": "contracts/CrowdFunding.sol",
  "abi": [
    {
      "inputs": [
        {
          "internalType": "uint256",
          "name": "",
          "type": "uint256"
        }
      ],
      "name": "campaigns",
      "outputs": [
        {
          "internalType": "address",
          "name": "owner",
          "type": "address"
        },
        {
          "internalType": "string",
          "name": "title",
          "type": "string"
        },
        {
          "internalType": "string",
          "name": "description",
          "type": "string"
        },
        {
          "internalType": "uint256",
          "name": "target",
          "type": "uint256"
        },
        {
          "internalType": "uint256",
          "name": "deadline",
          "type": "uint256"
        },
        {
          "internalType": "uint256",
          "name": "amountCollected",
          "type": "uint256"
        }
      ],
      "stateMutability": "view",
      "type": "function"
    },
    {
      "inputs": [
        {
          "internalType": "address",
          "name": "_owner",
          "type": "address"
        },
        {
          "internalType": "string",
          "name": "_title",
          "type": "string"
        },
        {
          "internalType": "string",
          "name": "_description",
          "type": "string"
        },
        {
          "internalType": "uint256",
          "name": "_target",
          "type": "uint256"
        },
        {
          "internalType": "uint256",
          "name": "_deadline",
          "type": "uint256"
        }
      ],
      "name": "createCampaign",
      "outputs": [
        {
          "internalType": "uint256",
          "name": "",
          "type": "uint256"
        }
      ],
      "stateMutability": "nonpayable",
      "type": "function"
    },
    {
      "inputs": [
        {
          "internalType": "uint256",
          "name": "_id",
          "type": "uint256"
        }
      ],
      "name": "donateToCampaign",
      "outputs": [],
      "stateMutability": "payable",
      "type": "function"
    },
    {
      "inputs": [],
      "name": "getCampaigns",
      "outputs": [
        {
          "components": [
            {
              "internalType": "address",
              "name": "owner",
              "type": "address"
            },
            {
              "internalType": "string",
              "name": "title",
              "type": "string"
            },
            {
              "internalType": "string",
              "name": "description",
              "type": "string"
            },
            {
              "internalType": "uint256",
              "name": "target",
              "type": "uint256"
            },
            {
              "internalType": "uint256",
              "name": "deadline",
              "type": "uint256"
            },
            {
              "internalType": "uint256",
              "name": "amountCollected",
              "type": "uint256"
            },
            {
              "internalType": "address[]",
              "name": "donators",
              "type": "address[]"
            },
            {
              "internalType": "uint256[]",
              "name": "donations",
              "type": "uint256[]"
            }
          ],
          "internalType": "struct CrowdFunding.Campaign[]",
          "name": "",
          "type": "tuple[]"
        }
      ],
      "stateMutability": "view",
      "type": "function"
    },
    {
      "inputs": [
        {
          "internalType": "uint256",
          "name": "_id",
          "type": "uint256"
        }
      ],
      "name": "getDonators",
      "outputs": [
        {
          "internalType": "address[]",
          "name": "",
          "type": "address[]"
        },
        {
          "internalType": "uint256[]",
          "name": "",
          "type": "uint256[]"
        }
      ],
      "stateMutability": "view",
      "type": "function"
    },
    {
      "inputs": [],
      "name": "numberOfCampaigns",
      "outputs": [
        {
          "internalType": "uint256",
          "name": "",
          "type": "uint256"
        }
      ],
      "stateMutability": "view",
      "type": "function"
    },
    {
      "inputs": [
        {
          "internalType": "address",
          "name": "to",
          "type": "address"
        }
      ],
      "name": "send",
      "outputs": [],
      "stateMutability": "payable",
      "type": "function"
    }
  ],
  "bytecode": "0x6080604052600060015534801561001557600080fd5b50611771806100256000396000f3fe6080604052600436106100705760003560e01c8063141961bc1161004e578063141961bc1461011b5780633e58c58c1461015d57806342a4fda814610179578063a6b036331461019557610070565b8063075843c31461007557806307ca140d146100b25780630fa91fa9146100dd575b600080fd5b34801561008157600080fd5b5061009c60048036038101906100979190610da4565b6101c0565b6040516100a99190610e66565b60405180910390f35b3480156100be57600080fd5b506100c76102e2565b6040516100d49190610e66565b60405180910390f35b3480156100e957600080fd5b5061010460048036038101906100ff9190610e81565b6102e8565b60405161011292919061102a565b60405180910390f35b34801561012757600080fd5b50610142600480360381019061013d9190610e81565b6103f8565b604051610154969594939291906110f8565b60405180910390f35b61017760048036038101906101729190611167565b610564565b005b610193600480360381019061018e9190610e81565b610614565b005b3480156101a157600080fd5b506101aa610774565b6040516101b79190611443565b60405180910390f35b600080600080600154815260200190815260200160002090504281600401541061021f576040517f08c379a0000000000000000000000000000000000000000000000000000000008152600401610216906114d7565b60405180910390fd5b868160000160006101000a81548173ffffffffffffffffffffffffffffffffffffffff021916908373ffffffffffffffffffffffffffffffffffffffff1602179055508581600101908051906020019061027a929190610ab8565b5084816002019080519060200190610293929190610ab8565b5083816003018190555082816004018190555060008160050181905550600160008154809291906102c390611526565b9190505550600180546102d6919061156f565b91505095945050505050565b60015481565b6060806000808481526020019081526020016000206006016000808581526020019081526020016000206007018180548060200260200160405190810160405280929190818152602001828054801561039657602002820191906000526020600020905b8160009054906101000a900473ffffffffffffffffffffffffffffffffffffffff1673ffffffffffffffffffffffffffffffffffffffff168152602001906001019080831161034c575b50505050509150808054806020026020016040519081016040528092919081815260200182805480156103e857602002820191906000526020600020905b8154815260200190600101908083116103d4575b5050505050905091509150915091565b60006020528060005260406000206000915090508060000160009054906101000a900473ffffffffffffffffffffffffffffffffffffffff1690806001018054610441906115d2565b80601f016020809104026020016040519081016040528092919081815260200182805461046d906115d2565b80156104ba5780601f1061048f576101008083540402835291602001916104ba565b820191906000526020600020905b81548152906001019060200180831161049d57829003601f168201915b5050505050908060020180546104cf906115d2565b80601f01602080910402602001604051908101604052809291908181526020018280546104fb906115d2565b80156105485780601f1061051d57610100808354040283529160200191610548565b820191906000526020600020905b81548152906001019060200180831161052b57829003601f168201915b5050505050908060030154908060040154908060050154905086565b60008173ffffffffffffffffffffffffffffffffffffffff163460405161058a90611635565b60006040518083038185875af1925050503d80600081146105c7576040519150601f19603f3d011682016040523d82523d6000602084013e6105cc565b606091505b5050905080610610576040517f08c379a000000000000000000000000000000000000000000000000000000000815260040161060790611696565b60405180910390fd5b5050565b60003490506000806000848152602001908152602001600020905080600601339080600181540180825580915050600190039060005260206000200160009091909190916101000a81548173ffffffffffffffffffffffffffffffffffffffff021916908373ffffffffffffffffffffffffffffffffffffffff1602179055508060070182908060018154018082558091505060019003906000526020600020016000909190919091505560008160000160009054906101000a900473ffffffffffffffffffffffffffffffffffffffff1673ffffffffffffffffffffffffffffffffffffffff168360405161070990611635565b60006040518083038185875af1925050503d8060008114610746576040519150601f19603f3d011682016040523d82523d6000602084013e61074b565b606091505b50509050801561076e5782826005015461076591906116b6565b82600501819055505b50505050565b6060600060015467ffffffffffffffff81111561079457610793610c43565b5b6040519080825280602002602001820160405280156107cd57816020015b6107ba610b3e565b8152602001906001900390816107b25790505b50905060005b600154811015610ab0576000806000838152602001908152602001600020905080604051806101000160405290816000820160009054906101000a900473ffffffffffffffffffffffffffffffffffffffff1673ffffffffffffffffffffffffffffffffffffffff1673ffffffffffffffffffffffffffffffffffffffff168152602001600182018054610866906115d2565b80601f0160208091040260200160405190810160405280929190818152602001828054610892906115d2565b80156108df5780601f106108b4576101008083540402835291602001916108df565b820191906000526020600020905b8154815290600101906020018083116108c257829003601f168201915b505050505081526020016002820180546108f8906115d2565b80601f0160208091040260200160405190810160405280929190818152602001828054610924906115d2565b80156109715780601f1061094657610100808354040283529160200191610971565b820191906000526020600020905b81548152906001019060200180831161095457829003601f168201915b5050505050815260200160038201548152602001600482015481526020016005820154815260200160068201805480602002602001604051908101604052809291908181526020018280548015610a1d57602002820191906000526020600020905b8160009054906101000a900473ffffffffffffffffffffffffffffffffffffffff1673ffffffffffffffffffffffffffffffffffffffff16815260200190600101908083116109d3575b5050505050815260200160078201805480602002602001604051908101604052809291908181526020018280548015610a7557602002820191906000526020600020905b815481526020019060010190808311610a61575b505050505081525050838381518110610a9157610a9061170c565b5b6020026020010181905250508080610aa890611526565b9150506107d3565b508091505090565b828054610ac4906115d2565b90600052602060002090601f016020900481019282610ae65760008555610b2d565b82601f10610aff57805160ff1916838001178555610b2d565b82800160010185558215610b2d579182015b82811115610b2c578251825591602001919060010190610b11565b5b509050610b3a9190610b99565b5090565b604051806101000160405280600073ffffffffffffffffffffffffffffffffffffffff168152602001606081526020016060815260200160008152602001600081526020016000815260200160608152602001606081525090565b5b80821115610bb2576000816000905550600101610b9a565b5090565b6000604051905090565b600080fd5b600080fd5b600073ffffffffffffffffffffffffffffffffffffffff82169050919050565b6000610bf582610bca565b9050919050565b610c0581610bea565b8114610c1057600080fd5b50565b600081359050610c2281610bfc565b92915050565b600080fd5b600080fd5b6000601f19601f8301169050919050565b7f4e487b7100000000000000000000000000000000000000000000000000000000600052604160045260246000fd5b610c7b82610c32565b810181811067ffffffffffffffff82111715610c9a57610c99610c43565b5b80604052505050565b6000610cad610bb6565b9050610cb98282610c72565b919050565b600067ffffffffffffffff821115610cd957610cd8610c43565b5b610ce282610c32565b9050602081019050919050565b82818337600083830152505050565b6000610d11610d0c84610cbe565b610ca3565b905082815260208101848484011115610d2d57610d2c610c2d565b5b610d38848285610cef565b509392505050565b600082601f830112610d5557610d54610c28565b5b8135610d65848260208601610cfe565b91505092915050565b6000819050919050565b610d8181610d6e565b8114610d8c57600080fd5b50565b600081359050610d9e81610d78565b92915050565b600080600080600060a08688031215610dc057610dbf610bc0565b5b6000610dce88828901610c13565b955050602086013567ffffffffffffffff811115610def57610dee610bc5565b5b610dfb88828901610d40565b945050604086013567ffffffffffffffff811115610e1c57610e1b610bc5565b5b610e2888828901610d40565b9350506060610e3988828901610d8f565b9250506080610e4a88828901610d8f565b9150509295509295909350565b610e6081610d6e565b82525050565b6000602082019050610e7b6000830184610e57565b92915050565b600060208284031215610e9757610e96610bc0565b5b6000610ea584828501610d8f565b91505092915050565b600081519050919050565b600082825260208201905092915050565b6000819050602082019050919050565b610ee381610bea565b82525050565b6000610ef58383610eda565b60208301905092915050565b6000602082019050919050565b6000610f1982610eae565b610f238185610eb9565b9350610f2e83610eca565b8060005b83811015610f5f578151610f468882610ee9565b9750610f5183610f01565b925050600181019050610f32565b5085935050505092915050565b600081519050919050565b600082825260208201905092915050565b6000819050602082019050919050565b610fa181610d6e565b82525050565b6000610fb38383610f98565b60208301905092915050565b6000602082019050919050565b6000610fd782610f6c565b610fe18185610f77565b9350610fec83610f88565b8060005b8381101561101d5781516110048882610fa7565b975061100f83610fbf565b925050600181019050610ff0565b5085935050505092915050565b600060408201905081810360008301526110448185610f0e565b905081810360208301526110588184610fcc565b90509392505050565b61106a81610bea565b82525050565b600081519050919050565b600082825260208201905092915050565b60005b838110156110aa57808201518184015260208101905061108f565b838111156110b9576000848401525b50505050565b60006110ca82611070565b6110d4818561107b565b93506110e481856020860161108c565b6110ed81610c32565b840191505092915050565b600060c08201905061110d6000830189611061565b818103602083015261111f81886110bf565b9050818103604083015261113381876110bf565b90506111426060830186610e57565b61114f6080830185610e57565b61115c60a0830184610e57565b979650505050505050565b60006020828403121561117d5761117c610bc0565b5b600061118b84828501610c13565b91505092915050565b600081519050919050565b600082825260208201905092915050565b6000819050602082019050919050565b600082825260208201905092915050565b60006111dc82611070565b6111e681856111c0565b93506111f681856020860161108c565b6111ff81610c32565b840191505092915050565b600082825260208201905092915050565b600061122682610eae565b611230818561120a565b935061123b83610eca565b8060005b8381101561126c5781516112538882610ee9565b975061125e83610f01565b92505060018101905061123f565b5085935050505092915050565b600082825260208201905092915050565b600061129582610f6c565b61129f8185611279565b93506112aa83610f88565b8060005b838110156112db5781516112c28882610fa7565b97506112cd83610fbf565b9250506001810190506112ae565b5085935050505092915050565b6000610100830160008301516113016000860182610eda565b506020830151848203602086015261131982826111d1565b9150506040830151848203604086015261133382826111d1565b91505060608301516113486060860182610f98565b50608083015161135b6080860182610f98565b5060a083015161136e60a0860182610f98565b5060c083015184820360c0860152611386828261121b565b91505060e083015184820360e08601526113a0828261128a565b9150508091505092915050565b60006113b983836112e8565b905092915050565b6000602082019050919050565b60006113d982611194565b6113e3818561119f565b9350836020820285016113f5856111b0565b8060005b85811015611431578484038952815161141285826113ad565b945061141d836113c1565b925060208a019950506001810190506113f9565b50829750879550505050505092915050565b6000602082019050818103600083015261145d81846113ce565b905092915050565b7f54686520646561646c696e652073686f756c642062652061206461746520696e60008201527f20746865206675747572652e0000000000000000000000000000000000000000602082015250565b60006114c1602c8361107b565b91506114cc82611465565b604082019050919050565b600060208201905081810360008301526114f0816114b4565b9050919050565b7f4e487b7100000000000000000000000000000000000000000000000000000000600052601160045260246000fd5b600061153182610d6e565b91507fffffffffffffffffffffffffffffffffffffffffffffffffffffffffffffffff821415611564576115636114f7565b5b600182019050919050565b600061157a82610d6e565b915061158583610d6e565b925082821015611598576115976114f7565b5b828203905092915050565b7f4e487b7100000000000000000000000000000000000000000000000000000000600052602260045260246000fd5b600060028204905060018216806115ea57607f821691505b602082108114156115fe576115fd6115a3565b5b50919050565b600081905092915050565b50565b600061161f600083611604565b915061162a8261160f565b600082019050919050565b600061164082611612565b9150819050919050565b7f4661696c656420746f2073656e64204554480000000000000000000000000000600082015250565b600061168060128361107b565b915061168b8261164a565b602082019050919050565b600060208201905081810360008301526116af81611673565b9050919050565b60006116c182610d6e565b91506116cc83610d6e565b9250827fffffffffffffffffffffffffffffffffffffffffffffffffffffffffffffffff03821115611701576117006114f7565b5b828201905092915050565b7f4e487b7100000000000000000000000000000000000000000000000000000000600052603260045260246000fdfea264697066735822122022f2e3f9aff23a41cec8edc52dd4fac1333f90843ed16722fad1073e2df8614c64736f6c63430008090033",
  "linkReferences": {},
  "deployedLinkReferences": {}
}